:100000000C942A000C94AF000C94C4000C94E500EE
:100010000C9447000C9447000C9447000C947A0011
:100020000C9447000C9447000C9447000C94470034
:100030000C9447000C9447000C9447000C94470024
:100040000C9447000C9447000C9447000C94470014
:100050000C94470011241FBECFE5D8E0DEBFCDBF12
:1000600010E0A0E6B0E0ECEAF6E002C005900D92E8
:10007000A636B107D9F710E0A6E6B0E001C01D92A0
:10008000A936B107E1F70E9480010C9454030C9447
:100090000000DF93CF93CDB7DEB7A4E3B0E0E4E395
:1000A000F0E080818F608C93A5E3B0E0E5E3F0E0C1
:1000B0008081807F8C93AAE3B0E0EAE3F0E0808166
:1000C0008F638C93ABE3B0E0EBE3F0E08081807C66
:1000D0008C93A1E3B0E0E1E3F0E0808181608C9358
:1000E000A2E3B0E0E2E3F0E080818E7F8C93CF91D9
:1000F000DF9108951F920F920FB60F9211242F9344
:100100003F934F935F936F937F938F939F93AF939F
:10011000BF93EF93FF93DF93CF93CDB7DEB780917B
:1001200066008F5F8093660080916600813021F4C5
:100130000E94BE0110926600CF91DF91FF91EF9176
:10014000BF91AF919F918F917F916F915F914F91EF
:100150003F912F910F900FBE0F901F9018951F92F7
:100160000F920FB60F9211248F93DF93CF93CDB7D9
:10017000DEB781E080936700CF91DF918F910F9080
:100180000FBE0F901F9018951F920F920FB60F92EF
:1001900011248F93AF93BF93EF93FF93DF93CF938C
:1001A000CDB7DEB7AEE4B0E0EEE4F0E080818A7F68
:1001B0008C93CF91DF91FF91EF91BF91AF918F9190
:1001C0000F900FBE0F901F9018951F920F920FB6B1
:1001D0000F9211248F93EF93FF93DF93CF93CDB7BB
:1001E000DEB7EEE4F0E08DE08083CF91DF91FF9108
:1001F000EF918F910F900FBE0F901F901895DF9386
:10020000CF93CDB7DEB7A1E3B0E0E1E3F0E08081CA
:100210008B7F8C93A2E3B0E0E2E3F0E08081846026
:100220008C93A5E5B0E0E5E5F0E0808184608C93F7
:10023000ABE5B0E0EBE5F0E0808180648C93CF919A
:10024000DF910895DF93CF93CDB7DEB7A1E3B0E0A0
:10025000E1E3F0E08081877F8C93A5E5B0E0E5E500
:10026000F0E080818C608C93ABE5B0E0EBE5F0E0F2
:10027000808180688C93CF91DF910895DF93CF9335
:10028000CDB7DEB7A7E3B0E0E7E3F0E080818B7F96
:100290008C93A8E3B0E0E8E3F0E0808184608C9385
:1002A000ABE5B0E0EBE5F0E0808180628C93CF912C
:1002B000DF910895DF93CF9300D000D0CDB7DEB7A4
:1002C00069837A838B839C83EEE4F0E08DE0808306
:1002D000ECE4F0E011821082EAE4F0E089819A8196
:1002E00091838083A9E5B0E0E9E5F0E08081806159
:1002F0008C930F900F900F900F90CF91DF910895F6
:10030000DF93CF930F92CDB7DEB70E944900AFE5E0
:10031000B0E0EFE5F0E0808180688C9368EE73E0F8
:1003200080E090E00E945A010E94FF000E9422019A
:100330000E943E0181E089830E94DD028091670076
:10034000882371F010926000109261001092620098
:100350001092630010926400109265001092670082
:100360008981873048F48981882F90E00E943D027E
:1003700089818F5F8983E0CF1982DECFDF93CF93AE
:10038000CDB7DEB780916000893039F4809161008B
:10039000853019F40E94E10111C08091600089301C
:1003A00041F4809161008F5F809361001092600042
:1003B00005C0809160008F5F80936000CF91DF91D6
:1003C0000895DF93CF93CDB7DEB71092610080918F
:1003D00061008093600080916200893039F48091DF
:1003E0006300853019F40E940A0211C080916200F6
:1003F000893041F4809163008F5F80936300109295
:10040000620005C0809162008F5F80936200CF918F
:10041000DF910895DF93CF93CDB7DEB710926100DF
:10042000809161008093600010926300809163006E
:100430008093620080916400893059F48091650056
:10044000853039F4109265008091650080936400D6
:1004500011C080916400893041F4809165008F5F04
:10046000809365001092640005C0809164008F5FE6
:1004700080936400CF91DF910895DF93CF9300D0F4
:1004800000D0CDB7DEB79A83898389819A819C8316
:100490008B838B819C818330910509F444C08B81CF
:1004A0009C81843091055CF48B819C818130910525
:1004B000C1F08B819C818230910521F177C08B81C5
:1004C0009C818530910509F450C08B819C818530D9
:1004D0009105D4F18B819C818630910509F456C039
:1004E00065C0EBE3F0E081EC8083A5E3B0E0E5E3F9
:1004F000F0E08081982F907F809160008F70892B31
:100500008C9354C0EBE3F0E082EC8083A5E3B0E091
:10051000E5E3F0E08081982F907F809161008F70FB
:10052000892B8C9343C0EBE3F0E084EC8083A5E35C
:10053000B0E0E5E3F0E08081982F907F8091620049
:100540008F70892B8C9332C0EBE3F0E088EC8083D2
:10055000A5E3B0E0E5E3F0E08081982F907F809103
:1005600063008F70892B8C9321C0EBE3F0E080ED6A
:100570008083A5E3B0E0E5E3F0E08081982F907FF1
:10058000809164008F70892B8C9310C0EBE3F0E0B6
:1005900080EE8083A5E3B0E0E5E3F0E08081982F72
:1005A000907F809165008F70892B8C930F900F90B6
:1005B0000F900F90CF91DF910895DF93CF93CDB738
:1005C000DEB780916300882F90E09C01220F331FDB
:1005D000C901880F991F880F991F280F391F809113
:1005E0006200882F90E0820F931F29E130E0B9016B
:1005F0000E942D03009739F580916300882F90E0C9
:100600009C01220F331FC901880F991F880F991F62
:10061000280F391F80916200882F90E0820F931F6E
:100620001816190684F480916000882361F4809183
:100630006100882341F4A2E3B0E0E2E3F0E08081CE
:1006400081608C9307C0A2E3B0E0E2E3F0E0808138
:100650008E7F8C93CF91DF91089597FB092E07260B
:100660000AD077FD04D00CD006D000201AF4709583
:1006700061957F4F0895F6F7909581959F4F089566
:10068000AA1BBB1B51E107C0AA1FBB1FA617B707B8
:1006900010F0A61BB70B881F991F5A95A9F78095D4
:0C06A0009095BC01CD010895F894FFCFA7
:0606AC000805090509051F
:00000001FF
